:100000004EC0000069C0000067C0000065C000006D
:1000100063C0000061C000005FC000005DC0000060
:100020005BC0000059C0000057C0000055C0000070
:1000300053C000001AC300004FC000004DC00000B4
:100040004BC0000049C0000047C0000045C0000090
:1000500043C0000041C000003FC000003DC00000A0
:100060003BC0000039C0000037C0000035C00000B0
:1000700033C0000031C000002FC000002DC00000C0
:100080002BC0000029C0000027C0000074017801C7
:100090007C01950199019D01A501A101A9011124EE
:1000A0001FBECFEFD0E4DEBFCDBF11E0A0E0B1E0D6
:1000B000EEE0FFE000E00BBF02C007900D92A83118
:1000C000B107D9F727E0A8E1B1E001C01D92A5353D
:1000D000B207E1F768D119C793CFFC010FB6F894C6
:1000E0006091510770915207809153079091540786
:1000F0000FBE309721F060837183828393830895CC
:10010000CF93DF93EC0104D42091180130911901B1
:10011000CE01820F931F8C3D45E0940758F42817B9
:10012000390758F4E901C65EDE4F909319018093B8
:10013000180105C0C0E0D0E002C0C0E0D0E0AFD4FC
:10014000CE01DF91CF9108950895FC01039692832B
:1001500081832FEF3FEF34832383968385839087BA
:10016000878310820895FC01118610860895CF932D
:10017000DF93FC01DB0121813281E9018A819B81CE
:1001800013969C938E9312978181928115969C93DE
:100190008E9314978A819B81EC017D836C83E901A6
:1001A0007B836A83728361831996FC93EE9318971D
:1001B00080818F5F8083DF91CF910895CF93DF930C
:1001C000EB01488159814F3F2FEF520731F4DC0199
:1001D0001796ED91FC91189717C0FC013396DC013E
:1001E00015962D913C911697D9012D913C9142176E
:1001F000530750F00280F381E02DA281B3812D914D
:100200003C9142175307B0F7A281B381BB83AA8305
:100210001596DC93CE931497FD83EC83D383C2832E
:1002200099878887FC0120812F5F2083DF91CF9100
:100230000895FC01A281B3818481958115969C93D8
:100240008E931497A481B5818281938113969C9398
:100250008E931297A085B18511968D919C911297DE
:100260008E179F0731F48481958112969C938E930B
:100270001197118610868C9181508C9308958091EE
:100280005007843099F028F4882351F0833059F0D6
:100290001FC08730A1F08830B9F08630C9F409C09A
:1002A00081E188B915C083E588B912C085E388B9B2
:1002B0000FC083E388B988EC90E072D409C018B805
:1002C00088EC90E06DD404C018B888EC90E068D455
:1002D000E09150078E2F90E08930910508F03CC0E6
:1002E000FC01EA5BFF4F2CC586E080935007089520
:1002F00086E080935007089580E090E0EEDECB0129
:1003000086D582D563E070E008D5009721F483E0BC
:10031000809350070895019721F484E0809350075B
:10032000089586E080935007089587E080935007F2
:10033000089587E080935007089587E080935007E1
:10034000089586E080935007089588E080935007D1
:10035000089582E0809350070895109250078FDF30
:1003600088EC90E01DD4FBCFAF92BF92CF92DF928A
:10037000EF92FF920F93A12CB12CC12CD12CE12C28
:10038000F12C082F20E030E045E550E066E071E018
:100390008DEA91E0A1D10F91FF90EF90DF90CF9087
:1003A000BF90AF90089511B88FEF82B987B98AB91D
:1003B00081E0DADF84D280E090E0089531E1FC0151
:1003C0003083319722E220833197A3E3A0833197D2
:1003D00060833197708331971082319760E8608332
:1003E00031971082319762E06083319763E06083D8
:1003F000319764E06083319765E06083319766E010
:100400006083319767E06083319768E0608331975C
:1004100069E06083319760E1608331973083319781
:1004200032E13083319733E13083319734E13083E7
:10043000319735E13083319736E13083319737E1B9
:100440003083319738E13083319739E13083319708
:1004500030E23083319731E2308331972083319716
:1004600023E220833197408331975083319726E2EE
:100470002083319727E22083319728E22083319728
:1004800029E22083319720E32083319721E32083E1
:1004900086970895109289008CE7809388008BE0FE
:1004A00080938100EFE6F0E0808182608083A091FC
:1004B0004E07B0914F07CD91CDBFDD91DEBFFF91CB
:1004C000EF91DF91CF91BF91AF919F918F917F91EC
:1004D0006F915F914F913F912F911F910F91FF90DD
:1004E000EF90DF90CF90BF90AF909F908F907F90D4
:1004F0006F905F904F903F902F901F900F900FBE86
:100500000F90089581E008950F920FB6F8940F921E
:100510001F9211242F923F924F925F926F927F927F
:100520008F929F92AF92BF92CF92DF92EF92FF9203
:100530000F931F932F933F934F935F936F937F93EB
:100540008F939F93AF93BF93CF93DF93EF93FF93DB
:10055000A0914E07B0914F070DB60D920EB60D92B9
:1005600070D3A0914E07B0914F07CD91CDBFDD91D3
:10057000DEBFFF91EF91DF91CF91BF91AF919F913E
:100580008F917F916F915F914F913F912F911F912B
:100590000F91FF90EF90DF90CF90BF90AF909F9022
:1005A0008F907F906F905F904F903F902F901F9013
:1005B0000F900FBE0F9008950F920FB6F8940F9200
:1005C0001F9211242F923F924F925F926F927F92CF
:1005D0008F929F92AF92BF92CF92DF92EF92FF9253
:1005E0000F931F932F933F934F935F936F937F933B
:1005F0008F939F93AF93BF93CF93DF93EF93FF932B
:10060000A0914E07B0914F070DB60D920EB60D9208
:1006100085D117D3A0914E07B0914F07CD91CDBF93
:10062000DD91DEBFFF91EF91DF91CF91BF91AF914F
:100630009F918F917F916F915F914F913F912F91FA
:100640001F910F91FF90EF90DF90CF90BF90AF90F0
:100650009F908F907F906F905F904F903F902F90E2
:100660001F900F900FBE0F900895A6DF1895CF939F
:10067000DF93EC01E0914E07F0914F079383828363
:100680008091FE069091FF06C817D90760F460912B
:100690004E0770914F0780911407909115076E5F78
:1006A0007F4F8CDD16C060914E0770914F0780918F
:1006B0001607909117076E5F7F4F80DD80910401D0
:1006C00090910501C817D90720F4D0930501C09374
:1006D0000401DF91CF9108954F925F926F927F92C4
:1006E0008F929F92AF92BF92CF92DF92EF92FF9242
:1006F0000F931F93CF93DF935C014B013A012901C4
:1007000081E290E0FDDCEC01892B09F4C6C0C11444
:10071000D10409F0BEC0C301F3DC988F8F8B009722
:1007200019F4CE0111DDB9C0A30165EA70E07AD3F6
:100730009301215031098F89988D3C01620E731EFF
:1007400048E050E0B401CE01499673D318A2102FAF
:10075000043008F013E01E8B6E0182E0C80ED11C3D
:10076000C60101DDCE010C96FEDCD987C88784E086
:1007700090E0811B91099D878C87DB8BCA8BA2013E
:10078000B501C3011BDE99838883E114F10419F0DC
:10079000F701D183C0830FB6F8940F9280910007C0
:1007A0008F5F8093000780914E0790914F07892BB0
:1007B00069F5D0934F07C0934E07809100078130B1
:1007C000A1F58AE297E0C1DC83E397E0BEDC8CE32D
:1007D00097E0BBDC85E497E0B8DC81E297E0B5DC2C
:1007E00088E197E0B2DC8BE097E0AFDC82E097E055
:1007F000ACDC81E297E0909317078093160788E1BD
:1008000097E090931507809314070FC08091FB0623
:1008100081110BC0E0914E07F0914F0786890817B0
:1008200020F0D0934F07C0934E078E899091FD061C
:10083000981710F48093FD069091F6069F5F9093B1
:10084000F6069091FC06981710F48093FC0690E051
:100850009C01220F331F220F331F220F331F820FE1
:10086000931FB601865D984F82DC0F900FBE80917A
:10087000FB06882351F0E0914E07F0914F078689DF
:10088000801728F441DE81E009C081E007C081E0E3
:1008900005C0D88ECF8AC60147CF8FEFDF91CF91A9
:1008A0001F910F91FF90EF90DF90CF90BF90AF908E
:1008B0009F908F907F906F905F904F900895AF9230
:1008C000BF92CF92DF92EF92FF920F93A12CB12CA7
:1008D000C12CD12CE12CF12C00E020E030E045E5EA
:1008E00050E062E171E08BEE95E0F6DE813041F49C
:1008F000F8948093FB061092FF061092FE06CADD64
:100900000F91FF90EF90DF90CF90BF90AF90089540
:100910008091FA068F5F8093FA0608950F931F93D4
:10092000CF93DF938091FA068111AFC08091FE06CC
:100930009091FF0601969093FF068093FE068091AA
:10094000FE069091FF06892B99F5809116079091EC
:10095000170720911407309115073093170720933C
:10096000160790931507809314078091F7068F5F01
:100970008093F706E0911607F091170780818111A7
:1009800007C08FEF9FEF909305018093040110C083
:10099000E0911607F09117070580F681E02D06809B
:1009A000F781E02D8281938190930501809304016A
:1009B0002091FE063091FF0680910401909105017F
:1009C0002817390708F466C0E0911607F091170759
:1009D0008081882399F0E0911607F0911707058030
:1009E000F681E02DC681D7818A819B812091FE0608
:1009F0003091FF0628173907F8F419C08FEF9FEFE1
:100A0000909305018093040145C0E0911607F09191
:100A100017070580F681E02DC681D7818A819B81E9
:100A20002091FE063091FF062817390728F490938D
:100A30000501809304012EC08E010E5F1F4FC80177
:100A4000F8DB8C899D89892B19F0CE010C96F1DB9E
:100A50002E898091FC06821710F42093FC0630E06A
:100A6000C901880F991F880F991F880F991F820F3E
:100A7000931FB801865D984F7ADBE0911607F091DD
:100A8000170780818111C1CFB9CF8091F9068F5F9F
:100A90008093F906DF91CF911F910F910895CF9226
:100AA000DF92EF92FF920F931F93CF93DF930FB6D6
:100AB000F8940F928091FA0681508093FA06809103
:100AC000FA0681115FC08091000781112FC05DC0BF
:100AD000D7011596ED91FC911697C681D781CE016D
:100AE0000C96A7DB8E010E5F1F4FC801A2DB2E897B
:100AF0008091FC06821710F42093FC0630E0C901B7
:100B0000880F991F880F991F880F991F820F931FB5
:100B1000B801865D984F2BDBE0914E07F0914F07AF
:100B20009E898689981758F0DC2C09C0D12C0F2E8D
:100B3000FBE0EF2EF7E0FF2EF02DCC24C394F7015D
:100B400080818111C5CF8091F906882379F0809149
:100B5000F906882391F0E2DE8091F90681508093B6
:100B6000F9068091F9068111F6CF07C0F1E0DF1692
:100B700021F08091F806813039F41092F806C4DC37
:100B800081E003C080E001C080E00F900FBEDF91E4
:100B9000CF911F910F91FF90EF90DF90CF9008952C
:100BA000CF93DF93EC01892B91F0B2DE8091FE06AA
:100BB0009091FF06C80FD91F80914E0790914F0763
:100BC000029637DBCE0153DD6ADF811101C09CDC68
:100BD000DF91CF9108950F2EF2E0EF2EF7E0FF2E78
:100BE000F02DCAE2D7E080910107882329F190DE39
:100BF000D7011C9154DF1123F9F00FB6F8940F922E
:100C0000D7011596ED91FC91169706811781C801C1
:100C100002960FDB8091000781508093000780913E
:100C200001078150809301070F900FBEF80187895B
:100C3000908D8ADAC80188DA88818230A0F264DC7B
:100C4000D2CF8091FA06811113C08091FC0690E00A
:100C5000FC01EE0FFF1FEE0FFF1FEE0FFF1F8E0FA9
:100C60009F1FFC01E65DF84F8081882329F01BC09F
:100C700081E08093F80608958091FC06815080936E
:100C8000FC068091FC0690E0FC01EE0FFF1FEE0FCA
:100C9000FF1FEE0FFF1F8E0F9F1FFC01E65DF84F39
:100CA0008081882349F38091FC0690E09C01220F0B
:100CB000331F220F331F220F331F280F391FD90173
:100CC000A65DB84F1196ED91FC9112970280F381C9
:100CD000E02D1296FC93EE931197235D384FE217A7
:100CE000F30729F422813381FD0132832183FC0142
:100CF000EE0FFF1FEE0FFF1FEE0FFF1F8E0F9F1F48
:100D0000FC01E65DF84F0180F281E02D868197813C
:100D100090934F0780934E07089597FB072E16F484
:100D2000009406D077FD08D014D007FC05D03EF41F
:100D3000909581959F4F0895709561957F4F089587
:100D4000EE0FFF1F0024001C0BBE0790F691E02D54
:100D50000994AA1BBB1B51E107C0AA1FBB1FA61702
:100D6000B70710F0A61BB70B881F991F5A95A9F754
:100D700080959095BC01CD0108958F929F92AF927E
:100D8000BF92CF92DF92EF92FF92CF93DF93EC016D
:100D9000688179818A819B81611571058105910541
:100DA00021F464E279ED8BE597E02DE133EF41E04A
:100DB00050E04ED049015A019B01AC01A7EAB1E4D1
:100DC00063D06B017C01ACEEB4EFA501940168D057
:100DD000DC01CB018C0D9D1DAE1DBF1DB7FF03C0F7
:100DE0000197A109B04888839983AA83BB839F7721
:100DF000DF91CF91FF90EF90DF90CF90BF90AF90B9
:100E00009F908F900895B9CF80E091E0B6CFA0E099
:100E1000B0E08093000190930101A0930201B09390
:100E200003010895DC0101C06D9341505040E0F78B
:100E30000895FB01DC014150504048F001900D92B3
:100E40000020C9F701C01D9241505040E0F70895BD
:100E5000052E97FB16F400940FD057FD05D024D033
:100E600007FC02D046F408C0509540953095219576
:100E70003F4F4F4F5F4F08959095809570956195C6
:100E80007F4F8F4F9F4F089531D0A59F900DB49FF6
:100E9000900DA49F800D911D11240895B7FFF4CFEC
:100EA000F3DF821B930B0895A1E21A2EAA1BBB1B32
:100EB000FD010DC0AA1FBB1FEE1FFF1FA217B30726
:100EC000E407F50720F0A21BB30BE40BF50B661F3C
:100ED000771F881F991F1A9469F760957095809500
:100EE00090959B01AC01BD01CF010895A29FB00177
:100EF000B39FC001A39F700D811D1124911DB29F4E
:0E0F0000700D811D1124911D0895F894FFCFEE
:100F0E0001000000FFFF4D6F7665536563546173FA
:080F1E006B0049444C45000042
:00000001FF
