:100000004EC000006AC0000068C0000066C000006A
:1000100064C0000062C0000060C000005EC000005C
:100020005CC000005AC0000058C0000056C000006C
:1000300054C0000037C6000050C000004EC0000091
:100040004CC000004AC0000048C0000046C000008C
:1000500044C0000042C0000040C000003EC000009C
:1000600040C100003AC0000038C0000036C00000A7
:1000700034C0000032C0000030C000002EC00000BC
:100080002CC000002AC0000028C00000BD01C7012C
:10009000CB01F201FF010C021D021902A902112479
:1000A0001FBECFEFD0E4DEBFCDBF11E0A0E0B1E0D6
:1000B000E0E0F5E100E00BBF02C007900D92A23333
:1000C000B107D9F727E0A2E3B1E001C01D92A93B37
:1000D000B207E1F784D40C947E0A92CFFC010FB6EC
:1000E000F8946091B5077091B6078091B707909129
:1000F000B8070FBE309721F06083718382839383AA
:100100000895CF93DF93EC0120D7209132013091F5
:100110003301CE01820F931F8C3D45E0940758F4C4
:100120002817390758F4E901CC5CDE4F909333016E
:100130008093320105C0C0E0D0E002C0C0E0D0E052
:10014000CBD7CE01DF91CF9108950895FC0103969E
:10015000928381832FEF3FEF3483238396838583BC
:100160009087878310820895FC0111861086089578
:10017000CF93DF93FC01DB0121813281E9018A8188
:100180009B8113969C938E931297818192811596F1
:100190009C938E9314978A819B81EC017D836C8361
:1001A000E9017B836A83728361831996FC93EE93E2
:1001B000189780818F5F8083DF91CF910895CF93CF
:1001C000DF93EB01488159814F3F2FEF520731F404
:1001D000DC011796ED91FC91189717C0FC0133963E
:1001E000DC0115962D913C911697D9012D913C91EA
:1001F0004217530750F00280F381E02DA281B381B2
:100200002D913C9142175307B0F7A281B381BB8374
:10021000AA831596DC93CE931497FD83EC83D38346
:10022000C28399878887FC0120812F5F2083DF911B
:10023000CF910895FC01A281B381848195811596A7
:100240009C938E931497A481B58182819381139698
:100250009C938E931297A085B18511968D919C9158
:1002600012978E179F0731F48481958112969C9383
:100270008E931197118610868C9181508C930895DE
:100280008091C000807208958091C000882354F44A
:10029000A6ECB0E0E0ECF0E08C9180931007808158
:1002A0008823D4F30895E0ECF0E0908195FFFDCF32
:1002B0008093C6000895EAE7F0E08081886E80832D
:1002C0000895ECE7F0E09081987F892B8083EAE73E
:1002D000F0E0808180648083809178009091790043
:1002E00008951F920F920FB60F9211248F9381E001
:1002F000809311078F910F900FBE0F901F9018954C
:10030000CF93DF93809196078430C9F028F4882337
:1003100051F0833089F025C08730D1F08830E9F082
:100320008630F9F40FC080E090E0D8DECB010E9467
:10033000000A81E188B915C083E588B912C085E358
:1003400088B90FC083E388B988EC90E046D709C02C
:1003500018B888EC90E041D704C018B888EC90E059
:100360003CD7E09196078E2F90E08930910508F0F8
:10037000F3C0FC01EA5BFF4FF0C781E090E090938F
:1003800019078093180786E080939607E5C086E0FA
:1003900080939607E1C08FDF80E090E092DFEC0170
:1003A000909111079923E1F31092110781E090E0F9
:1003B00088DF909111079923E1F31092110782E0F1
:1003C00090E07FDF909111079923E1F310921107DC
:1003D0008FEF8BB9C03FD34009F0BEC083E080935C
:1003E0009607BAC0809104019091050101969093FF
:1003F00005018093040187E080939607ADC080914A
:1004000004019091050101979093050180930401E7
:1004100087E080939607A0C0809104019091050128
:100420000296909305018093040187E080939607DC
:1004300093C086E0809396078FC0809104019091CD
:1004400005019C0123703327232BE1F480911607CB
:100450009091170701969093170780931607E091E4
:100460009207F0919307EE0FFF1FEE0FFF1FE80FAB
:10047000F91FEE0FFF1FE85EF84F81E090E09183D7
:10048000808363C083709078992324F401978C6FE4
:100490009F6F019681309105E1F4E0919207F09110
:1004A00093073196F0939307E0939207EE0FFF1FA7
:1004B000EE0FFF1F8091160790911707E80FF91FA5
:1004C000EE0FFF1FE85EF84F81E090E0918380839C
:1004D0003CC082309105E1F4809116079091170796
:1004E00001979093170780931607E0919207F09178
:1004F0009307EE0FFF1FEE0FFF1FE80FF91FEE0F20
:10050000FF1FE85EF84F81E090E0918380831DC07B
:100510000397D9F4E0919207F09193073197F09304
:100520009307E0939207EE0FFF1FEE0FFF1F8091DE
:10053000160790911707E80FF91FEE0FFF1FE85EEF
:10054000F84F81E090E09183808388E08093960764
:1005500003C082E080939607DF91CF9108951092B7
:100560009607CEDE88EC90E038D6FBCF8091A207CC
:10057000813009F0CAC1809118079091190701973D
:10058000B1F48091A3079091A407892B81F4809105
:1005900014079091150701969093150780931407FF
:1005A00081E090E09093A4078093A307A3C180917A
:1005B0001A0790911B070197B1F480919C079091C5
:1005C0009D07892B81F4809114079091150702965D
:1005D000909315078093140781E090E090939D0716
:1005E00080939C0787C180911C0790911D070197FC
:1005F000B1F48091AF079091B007892B81F480917D
:10060000140790911507039690931507809314078C
:1006100081E090E09093B0078093AF076BC1809129
:100620001E0790911F070197B1F480919E0790914A
:100630009F07892B81F480911407909115070496E8
:10064000909315078093140781E090E090939F07A3
:1006500080939E074FC180912007909121070197B9
:10066000B1F48091980790919907892B81F480913A
:10067000140790911507059690931507809314071A
:1006800081E090E0909399078093980733C180911F
:100690002207909123070197B1F48091AD079091C3
:1006A000AE07892B81F48091140790911507069667
:1006B000909315078093140781E090E09093AE0724
:1006C0008093AD0717C1809124079091250701976A
:1006D000B1F48091AB079091AC07892B81F48091A4
:1006E00014079091150707969093150780931407A8
:1006F00081E090E09093AC078093AB07FBC08091C2
:100700002607909127070197B1F48091A007909157
:10071000A107892B81F48091140790911507089601
:10072000909315078093140781E090E09093A107C0
:100730008093A007DFC08091280790912907019737
:10074000B1F48091A5079091A607892B81F480913F
:100750001407909115070996909315078093140735
:1007600081E090E09093A6078093A507C3C0809195
:100770002A0790912B070197B1F480919A079091E5
:100780009B07892B81F480911407909115070A9695
:10079000909315078093140781E090E090939B0756
:1007A00080939A07A7C080912C0790912D070197FD
:1007B000B1F48091B3079091B407892B81F48091B3
:1007C0001407909115070B969093150780931407C3
:1007D00081E090E09093B4078093B3078BC0809141
:1007E0002E0790912F070197B1F48091A90790915E
:1007F000AA07892B81F480911407909115070C9614
:10080000909315078093140781E090E09093AA07D6
:100810008093A9076FC080913007909131070197AD
:10082000B1F48091940790919507892B81F4809180
:100830001407909115070D96909315078093140750
:1008400081E090E0909395078093940753C0809146
:100850003207909133070197B1F48091B1079091DD
:10086000B207892B81F480911407909115070E9699
:10087000909315078093140781E090E09093B2075E
:100880008093B10737C08091340790913507019765
:10089000B1F48091A7079091A807892B81F48091EA
:1008A0001407909115070F969093150780931407DE
:1008B00081E090E09093A8078093A7071BC08091E8
:1008C0003607909137070197A9F48091120790910C
:1008D0001307892B79F4809114079091150740969E
:1008E000909315078093140781E090E0909313078D
:1008F0008093120780E090E0C3DC882331F0809180
:100900001407D1DC80E090E0BFDC8091A20788234F
:1009100019F0813041F404C081E08093A20708956A
:1009200082E08093A20708951092A2071FDE84E65A
:1009300090E053D4FBCF80919707813041F018F0BD
:10094000823061F0089581E080939707089582B125
:10095000806782B981E080939707089582B18F788C
:1009600082B981E080939707089510929707E3DF9B
:1009700084E690E032D4FBCFAF92BF92CF92DF9269
:10098000EF92FF920F93CF93A12CB12CC12CD12CBD
:10099000E12CF12C082F20E030E045E550E068E044
:1009A00071E08FEA92E0B5D120E030E045E550E01B
:1009B00064E171E084E994E0ACD120E030E045E509
:1009C00050E061E271E085EB94E0A3D1CF910F910B
:1009D000FF90EF90DF90CF90BF90AF90089580EFA1
:1009E00081B98FEF82B987B98AB981E0C5DF84D236
:1009F00080E090E0089531E1FC013083319722E2FC
:100A000020833197A3E3A08331976083319770836C
:100A100031971082319760E8608331971082319767
:100A200062E06083319763E06083319764E06083C4
:100A3000319765E06083319766E06083319767E0C6
:100A40006083319768E06083319769E06083319714
:100A500060E1608331973083319732E130833197A1
:100A600033E13083319734E13083319735E130839E
:100A7000319736E13083319737E13083319738E170
:100A80003083319739E13083319730E230833197C9
:100A900031E2308331972083319723E220833197ED
:100AA000408331975083319726E22083319727E2A4
:100AB0002083319728E22083319729E220833197E0
:100AC00020E32083319721E32083869708951092B5
:100AD00089008CE7809388008BE080938100EFE6AB
:100AE000F0E0808182608083A0919007B0919107AF
:100AF000CD91CDBFDD91DEBFFF91EF91DF91CF9121
:100B0000BF91AF919F918F917F916F915F914F9125
:100B10003F912F911F910F91FF90EF90DF90CF9019
:100B2000BF90AF909F908F907F906F905F904F900D
:100B30003F902F901F900F900FBE0F90089581E06F
:100B400008950F920FB6F8940F921F9211242F92CE
:100B50003F924F925F926F927F928F929F92AF924D
:100B6000BF92CF92DF92EF92FF920F931F932F933A
:100B70003F934F935F936F937F938F939F93AF9325
:100B8000BF93CF93DF93EF93FF93A0919007B09122
:100B900091070DB60D920EB60D9273D3A0919007EA
:100BA000B0919107CD91CDBFDD91DEBFFF91EF9167
:100BB000DF91CF91BF91AF919F918F917F916F9175
:100BC0005F914F913F912F911F910F91FF90EF9067
:100BD000DF90CF90BF90AF909F908F907F906F905D
:100BE0005F904F903F902F901F900F900FBE0F90EF
:100BF00008950F920FB6F8940F921F9211242F921E
:100C00003F924F925F926F927F928F929F92AF929C
:100C1000BF92CF92DF92EF92FF920F931F932F9389
:100C20003F934F935F936F937F938F939F93AF9374
:100C3000BF93CF93DF93EF93FF93A0919007B09171
:100C400091070DB60D920EB60D9285D11AD3A091D3
:100C50009007B0919107CD91CDBFDD91DEBFFF919F
:100C6000EF91DF91CF91BF91AF919F918F917F9144
:100C70006F915F914F913F912F911F910F91FF9035
:100C8000EF90DF90CF90BF90AF909F908F907F902C
:100C90006F905F904F903F902F901F900F900FBEDE
:100CA0000F900895A6DF1895CF93DF93EC01E091A4
:100CB0009007F091910793838283809140079091F0
:100CC0004107C817D90760F46091900770919107A8
:100CD00080915607909157076E5F7F4F70DA16C06C
:100CE00060919007709191078091580790915907F2
:100CF0006E5F7F4F64DA8091060190910701C817FB
:100D0000D90720F4D0930701C0930601DF91CF915A
:100D100008954F925F926F927F928F929F92AF92BF
:100D2000BF92CF92DF92EF92FF920F931F93CF93D8
:100D3000DF935C014B013A01290181E290E0E1D9A6
:100D4000EC01892B09F4C6C0C114D10409F0BEC05E
:100D5000C301D7D9988F8F8B009719F4CE01F5D99D
:100D6000B9C0A30165EA70E056D39301215031095F
:100D70008F89988D3C01620E731E48E050E0B401EB
:100D8000CE0149964FD318A2102F043008F013E07B
:100D90001E8B6E0182E0C80ED11CC601E5D9CE01C2
:100DA0000C96E2D9D987C88784E090E0811B91092D
:100DB0009D878C87DB8BCA8BA201B501C3011BDE2B
:100DC00099838883E114F10419F0F701D183C0837A
:100DD0000FB6F8940F92809142078F5F809342077D
:100DE0008091900790919107892B69F5D093910795
:100DF000C0939007809142078130A1F58CE697E07F
:100E0000A5D985E797E0A2D98EE797E09FD987E833
:100E100097E09CD983E697E099D98AE597E096D93F
:100E20008DE497E093D984E497E090D983E697E046
:100E300090935907809358078AE597E09093570756
:100E4000809356070FC080913D0781110BC0E09140
:100E50009007F09191078689081720F0D0939107A9
:100E6000C09390078E8990913F07981710F4809354
:100E70003F07909138079F5F9093380790913E0706
:100E8000981710F480933E0790E09C01220F331FC7
:100E9000220F331F220F331F820F931FB601845975
:100EA000984F66D90F900FBE80913D07882351F06F
:100EB000E0919007F09191078689801728F441DE30
:100EC00081E009C081E007C081E005C0D88ECF8AEB
:100ED000C60147CF8FEFDF91CF911F910F91FF9008
:100EE000EF90DF90CF90BF90AF909F908F907F90CA
:100EF0006F905F904F900895AF92BF92CF92DF9224
:100F0000EF92FF920F93A12CB12CC12CD12CE12C8C
:100F1000F12C00E020E030E045E550E06DE271E0CA
:100F200088E099E0F6DE813041F4F89480933D0743
:100F30001092410710924007CADD0F91FF90EF9089
:100F4000DF90CF90BF90AF90089580913C078F5F66
:100F500080933C0708950F931F93CF93DF93809165
:100F60003C078111AFC080914007909141070196E5
:100F700090934107809340078091400790914107EB
:100F8000892B99F580915807909159072091560720
:100F9000309157073093590720935807909357077C
:100FA00080935607809139078F5F80933907E091CE
:100FB0005807F09159078081811107C08FEF9FEF8B
:100FC000909307018093060110C0E0915807F091BB
:100FD00059070580F681E02D0680F781E02D82819A
:100FE00093819093070180930601209140073091EF
:100FF000410780910601909107012817390708F4ED
:1010000066C0E0915807F09159078081882399F0D4
:10101000E0915807F09159070580F681E02DC681CF
:10102000D7818A819B812091400730914107281701
:101030003907F8F419C08FEF9FEF90930701809361
:10104000060145C0E0915807F09159070580F681E7
:10105000E02DC681D7818A819B8120914007309104
:1010600041072817390728F4909307018093060158
:101070002EC08E010E5F1F4FC801DCD88C899D8960
:10108000892B19F0CE010C96D5D82E8980913E0778
:10109000821710F420933E0730E0C901880F991F92
:1010A000880F991F880F991F820F931FB8018459C9
:1010B000984F5ED8E0915807F091590780818111CF
:1010C000C1CFB9CF80913B078F5F80933B07DF9102
:1010D000CF911F910F910895CF92DF92EF92FF92DF
:1010E0000F931F93CF93DF930FB6F8940F928091D5
:1010F0003C07815080933C0780913C0781115FC081
:101100008091420781112FC05DC0D7011596ED91E6
:10111000FC911697C681D781CE010C968BD88E0193
:101120000E5F1F4FC80186D82E8980913E07821717
:1011300010F420933E0730E0C901880F991F880FF3
:10114000991F880F991F820F931FB8018459984FD8
:101150000FD8E0919007F09191079E8986899817A2
:1011600058F0DC2C09C0D12C0F2EFDE4EF2EF7E057
:10117000FF2EF02DCC24C394F70180818111C5CFBF
:1011800080913B07882379F080913B07882391F079
:10119000E2DE80913B07815080933B0780913B07C3
:1011A0008111F6CF07C0F1E0DF1621F080913A07F8
:1011B000813039F410923A07C4DC81E003C080E04A
:1011C00001C080E00F900FBEDF91CF911F910F9172
:1011D000FF90EF90DF90CF900895CF93DF93EC01D5
:1011E000892B91F0B2DE8091400790914107C80FA2
:1011F000D91F809190079091910702961BD8CE013C
:1012000053DD6ADF811101C09CDCDF91CF9108952D
:101210000F2EF4E4EF2EF7E0FF2EF02DCCE6D7E012
:1012200080914307882341F190DED7011C9154DF60
:10123000112311F10FB6F8940F92D7011596ED9185
:10124000FC91169706811781C80102960E941A0127
:1012500080914207815080934207809143078150DB
:10126000809343070F900FBEF8018789908D0E94ED
:10127000A500C8010E94A5008881823088F261DC47
:10128000CFCF80913C07811113C080913E0790E041
:10129000FC01EE0FFF1FEE0FFF1FEE0FFF1F8E0F63
:1012A0009F1FFC01E459F84F8081882329F01BC05F
:1012B00081E080933A07089580913E0781508093A2
:1012C0003E0780913E0790E0FC01EE0FFF1FEE0FFE
:1012D000FF1FEE0FFF1F8E0F9F1FFC01E459F84FF9
:1012E0008081882349F380913E0790E09C01220F82
:1012F000331F220F331F220F331F280F391FD9012D
:10130000A459B84F1196ED91FC9112970280F38188
:10131000E02D1296FC93EE9311972159384FE21766
:10132000F30729F422813381FD0132832183FC01FB
:10133000EE0FFF1FEE0FFF1FEE0FFF1F8E0F9F1F01
:10134000FC01E459F84F0180F281E02D86819781FC
:1013500090939107809390070895EE0FFF1F00244C
:10136000001C0BBE0790F691E02D09948F929F927E
:10137000AF92BF92CF92DF92EF92FF92CF93DF9323
:10138000EC01688179818A819B81611571058105F4
:10139000910521F464E279ED8BE597E02DE133EFDF
:1013A00041E050E04ED049015A019B01AC01A7EA4F
:1013B000B1E463D06B017C01ACEEB4EFA501940104
:1013C00068D0DC01CB018C0D9D1DAE1DBF1DB7FF8C
:1013D00003C00197A109B04888839983AA83BB837E
:1013E0009F77DF91CF91FF90EF90DF90CF90BF90EC
:1013F000AF909F908F900895B9CF80E091E0B6CFE5
:10140000A0E0B0E08093000190930101A09302015D
:10141000B09303010895DC0101C06D934150504029
:10142000E0F70895FB01DC014150504048F0019085
:101430000D920020C9F701C01D9241505040E0F7C5
:101440000895052E97FB16F400940FD057FD05D094
:1014500024D007FC02D046F408C050954095309542
:1014600021953F4F4F4F5F4F089590958095709510
:1014700061957F4F8F4F9F4F089531D0A59F900D5D
:10148000B49F900DA49F800D911D11240895B7FF66
:10149000F4CFF3DF821B930B0895A1E21A2EAA1B4F
:1014A000BB1BFD010DC0AA1FBB1FEE1FFF1FA21714
:1014B000B307E407F50720F0A21BB30BE40BF50B11
:1014C000661F771F881F991F1A9469F7609570959A
:1014D000809590959B01AC01BD01CF010895A29F1D
:1014E000B001B39FC001A39F700D811D1124911DF8
:1014F000B29F700D811D1124911D0895F894FFCFA6
:10150000010000006400FFFF4D6F76655365635472
:1015100061736B00547261636B5365635461736BE9
:1015200000456D69745365635461736B0049444CA5
:02153000450074
:00000001FF
