:100000004EC0000069C0000067C0000065C000006D
:1000100063C0000061C000005FC000005DC0000060
:100020005BC0000059C0000057C0000055C0000070
:1000300053C0000065C300004FC000004DC0000069
:100040004BC0000049C0000047C0000045C0000090
:1000500043C0000041C000003FC000003DC00000A0
:100060003BC0000039C0000037C0000035C00000B0
:1000700033C0000031C000002FC000002DC00000C0
:100080002BC0000029C0000027C000008E01920193
:100090009601B301B701BB01C301BF01C701112420
:1000A0001FBECFEFD0E4DEBFCDBF11E0A0E0B1E0D6
:1000B000E4EAFFE000E00BBF02C007900D92A4321B
:1000C000B107D9F727E0A4E2B1E001C01D92A23642
:1000D000B207E1F7B2D164C793CFFC010FB6F89431
:1000E00060915E0770915F07809160079091610752
:1000F0000FBE309721F060837183828393830895CC
:10010000CF93DF93EC014FD420912401309125014E
:10011000CE01820F931F8C3D45E0940758F42817B9
:10012000390758F4E901CA5DDE4F909325018093A9
:10013000240105C0C0E0D0E002C0C0E0D0E0FAD4A5
:10014000CE01DF91CF9108950895FC01039692832B
:1001500081832FEF3FEF34832383968385839087BA
:10016000878310820895FC01118610860895CF932D
:10017000DF93FC01DB0121813281E9018A819B81CE
:1001800013969C938E9312978181928115969C93DE
:100190008E9314978A819B81EC017D836C83E901A6
:1001A0007B836A83728361831996FC93EE9318971D
:1001B00080818F5F8083DF91CF910895CF93DF930C
:1001C000EB01488159814F3F2FEF520731F4DC0199
:1001D0001796ED91FC91189717C0FC013396DC013E
:1001E00015962D913C911697D9012D913C9142176E
:1001F000530750F00280F381E02DA281B3812D914D
:100200003C9142175307B0F7A281B381BB83AA8305
:100210001596DC93CE931497FD83EC83D383C2832E
:1002200099878887FC0120812F5F2083DF91CF9100
:100230000895FC01A281B3818481958115969C93D8
:100240008E931497A481B5818281938113969C9398
:100250008E931297A085B18511968D919C911297DE
:100260008E179F0731F48481958112969C938E930B
:100270001197118610868C9181508C930895ECE72C
:10028000F0E0208187709927287F822B8083EAE71E
:10029000F0E0808180648083808186FDFDCF809145
:1002A000780090917900089580915C078430C1F0C6
:1002B00028F4882351F0833081F024C08730C9F0BE
:1002C0008830E1F08630F1F40EC080E090E005DF88
:1002D000CB01E8D581E188B915C083E588B912C0A2
:1002E00085E388B90FC083E388B988EC90E0A3D494
:1002F00009C018B888EC90E09ED404C018B888EC07
:1003000090E099D4E0915C078E2F90E089309105C0
:1003100008F040C0FC01EA5BFF4F5DC586E08093BA
:100320005C07089586E080935C07089580E090E084
:10033000A6DF81E090E0A3DF82E090E0A0DFAFD510
:1003400063E070E035D5009721F483E080935C078B
:100350000895019721F484E080935C07089586E076
:1003600080935C07089587E080935C07089587E099
:1003700080935C07089587E080935C07089586E08A
:1003800080935C07089588E080935C07089582E07D
:1003900080935C07089510925C0786DF88EC90E0FC
:1003A0004AD4FBCF80915D07813041F018F0823054
:1003B00061F0089581E080935D07089582B18067C0
:1003C00082B982E080935D07089582B18F7882B907
:1003D00081E080935D07089510925D07E3DF84E676
:1003E00090E029D4FBCFAF92BF92CF92DF92EF92F1
:1003F000FF920F93CF93A12CB12CC12CD12CE12CC7
:10040000F12C082F20E030E045E550E066E071E097
:100410008BEC91E0ACD120E030E045E550E062E1CA
:1004200071E08CEE91E0A3D1CF910F91FF90EF900E
:10043000DF90CF90BF90AF90089580EF81B98FEF9C
:1004400082B987B98AB981E0CEDF84D280E090E0BA
:10045000089531E1FC013083319722E22083319706
:10046000A3E3A08331976083319770833197108223
:10047000319760E8608331971082319762E0608342
:10048000319763E06083319764E06083319765E082
:100490006083319766E06083319767E060833197CE
:1004A00068E06083319769E06083319760E1608341
:1004B00031973083319732E13083319733E13083A4
:1004C000319734E13083319735E13083319736E12C
:1004D0003083319737E13083319738E1308331977A
:1004E00039E13083319730E23083319731E2308324
:1004F00031972083319723E22083319740833197CE
:100500005083319726E22083319727E22083319769
:1005100028E22083319729E22083319720E320834A
:10052000319721E3208386970895109289008CE704
:10053000809388008BE080938100EFE6F0E080817B
:1005400082608083A0915A07B0915B07CD91CDBFA7
:10055000DD91DEBFFF91EF91DF91CF91BF91AF9120
:100560009F918F917F916F915F914F913F912F91CB
:100570001F910F91FF90EF90DF90CF90BF90AF90C1
:100580009F908F907F906F905F904F903F902F90B3
:100590001F900F900FBE0F90089581E008950F9265
:1005A0000FB6F8940F921F9211242F923F924F9200
:1005B0005F926F927F928F929F92AF92BF92CF92F3
:1005C000DF92EF92FF920F931F932F933F934F93DE
:1005D0005F936F937F938F939F93AF93BF93CF93CB
:1005E000DF93EF93FF93A0915A07B0915B070DB68D
:1005F0000D920EB60D9270D3A0915A07B0915B0781
:10060000CD91CDBFDD91DEBFFF91EF91DF91CF9115
:10061000BF91AF919F918F917F916F915F914F911A
:100620003F912F911F910F91FF90EF90DF90CF900E
:10063000BF90AF909F908F907F906F905F904F9002
:100640003F902F901F900F900FBE0F9008950F9224
:100650000FB6F8940F921F9211242F923F924F924F
:100660005F926F927F928F929F92AF92BF92CF9242
:10067000DF92EF92FF920F931F932F933F934F932D
:100680005F936F937F938F939F93AF93BF93CF931A
:10069000DF93EF93FF93A0915A07B0915B070DB6DC
:1006A0000D920EB60D9285D117D3A0915A07B09135
:1006B0005B07CD91CDBFDD91DEBFFF91EF91DF9163
:1006C000CF91BF91AF919F918F917F916F915F91EA
:1006D0004F913F912F911F910F91FF90EF90DF90DD
:1006E000CF90BF90AF909F908F907F906F905F90D2
:1006F0004F903F902F901F900F900FBE0F90089536
:10070000A6DF1895CF93DF93EC01E0915A07F091A3
:100710005B079383828380910A0790910B07C81728
:10072000D90760F460915A0770915B0780912007A8
:10073000909121076E5F7F4F41DD16C060915A078F
:1007400070915B0780912207909123076E5F7F4F26
:1007500035DD8091040190910501C817D90720F477
:10076000D0930501C0930401DF91CF9108954F927A
:100770005F926F927F928F929F92AF92BF92CF9231
:10078000DF92EF92FF920F931F93CF93DF935C0161
:100790004B013A01290181E290E0B2DCEC01892BA6
:1007A00009F4C6C0C114D10409F0BEC0C301A8DC5D
:1007B000988F8F8B009719F4CE01C6DCB9C0A301C6
:1007C00065EA70E07AD39301215031098F89988DC1
:1007D0003C01620E731E48E050E0B401CE01499620
:1007E00073D318A2102F043008F013E01E8B6E0193
:1007F00082E0C80ED11CC601B6DCCE010C96B3DC7B
:10080000D987C88784E090E0811B91099D878C87F8
:10081000DB8BCA8BA201B501C3011BDE99838883E0
:10082000E114F10419F0F701D183C0830FB6F894F5
:100830000F9280910C078F5F80930C0780915A076D
:1008400090915B07892B69F5D0935B07C0935A079A
:1008500080910C078130A1F586E397E076DC8FE389
:1008600097E073DC88E497E070DC81E597E06DDC6D
:100870008DE297E06ADC84E297E067DC87E197E04D
:1008800064DC8EE097E061DC8DE297E090932307D3
:100890008093220784E297E09093210780932007BA
:1008A0000FC08091070781110BC0E0915A07F091AA
:1008B0005B078689081720F0D0935B07C0935A071F
:1008C0008E8990910907981710F4809309079091E9
:1008D00002079F5F9093020790910807981710F402
:1008E0008093080790E09C01220F331F220F331FD3
:1008F000220F331F820F931FB6018A5C984F37DC9B
:100900000F900FBE80910707882351F0E0915A079E
:10091000F0915B078689801728F441DE81E009C0E9
:1009200081E007C081E005C0D88ECF8AC60147CFDD
:100930008FEFDF91CF911F910F91FF90EF90DF909C
:10094000CF90BF90AF909F908F907F906F905F906F
:100950004F900895AF92BF92CF92DF92EF92FF92A5
:100960000F93A12CB12CC12CD12CE12CF12C00E047
:1009700020E030E045E550E06EE171E086E396E08E
:10098000F6DE813041F4F8948093070710920B074C
:1009900010920A07CADD0F91FF90EF90DF90CF9081
:1009A000BF90AF900895809106078F5F80930607F0
:1009B00008950F931F93CF93DF93809106078111C2
:1009C000AFC080910A0790910B07019690930B0797
:1009D00080930A0780910A0790910B07892B99F55C
:1009E00080912207909123072091200730912107C1
:1009F00030932307209322079093210780932007A9
:100A0000809103078F5F80930307E0912207F091A5
:100A100023078081811107C08FEF9FEF909305011D
:100A20008093040110C0E0912207F0912307058014
:100A3000F681E02D0680F781E02D828193819093ED
:100A400005018093040120910A0730910B078091E2
:100A50000401909105012817390708F466C0E09158
:100A60002207F09123078081882399F0E0912207E3
:100A7000F09123070580F681E02DC681D7818A8118
:100A80009B8120910A0730910B0728173907F8F44A
:100A900019C08FEF9FEF909305018093040145C02B
:100AA000E0912207F09123070580F681E02DC681B1
:100AB000D7818A819B8120910A0730910B072817E3
:100AC000390728F490930501809304012EC08E010C
:100AD0000E5F1F4FC801ADDB8C899D89892B19F0F2
:100AE000CE010C96A6DB2E8980910807821710F4A0
:100AF0002093080730E0C901880F991F880F991FBC
:100B0000880F991F820F931FB8018A5C984F2FDBC3
:100B1000E0912207F091230780818111C1CFB9CFE5
:100B2000809105078F5F80930507DF91CF911F911B
:100B30000F910895CF92DF92EF92FF920F931F9340
:100B4000CF93DF930FB6F8940F92809106078150F0
:100B5000809306078091060781115FC080910C0782
:100B600081112FC05DC0D7011596ED91FC911697AC
:100B7000C681D781CE010C965CDB8E010E5F1F4FC4
:100B8000C80157DB2E8980910807821710F4209343
:100B9000080730E0C901880F991F880F991F880F37
:100BA000991F820F931FB8018A5C984FE0DAE09199
:100BB0005A07F0915B079E898689981758F0DC2CBC
:100BC00009C0D12C0F2EF7E1EF2EF7E0FF2EF02D0C
:100BD000CC24C394F70180818111C5CF8091050792
:100BE000882379F080910507882391F0E2DE8091D7
:100BF0000507815080930507809105078111F6CF85
:100C000007C0F1E0DF1621F080910407813039F44C
:100C100010920407C4DC81E003C080E001C080E0E2
:100C20000F900FBEDF91CF911F910F91FF90EF902A
:100C3000DF90CF900895CF93DF93EC01892B91F053
:100C4000B2DE80910A0790910B07C80FD91F8091DF
:100C50005A0790915B070296ECDACE0153DD6ADF0A
:100C6000811101C09CDCDF91CF9108950F2EFEE031
:100C7000EF2EF7E0FF2EF02DC6E3D7E080910D07B1
:100C8000882329F190DED7011C9154DF1123F9F05C
:100C90000FB6F8940F92D7011596ED91FC91169727
:100CA00006811781C8010296C4DA80910C07815031
:100CB00080930C0780910D07815080930D070F9052
:100CC0000FBEF8018789908D3FDAC8013DDA88812F
:100CD0008230A0F264DCD2CF80910607811113C06C
:100CE0008091080790E0FC01EE0FFF1FEE0FFF1F41
:100CF000EE0FFF1F8E0F9F1FFC01EA5CF84F8081F3
:100D0000882329F01BC081E0809304070895809117
:100D100008078150809308078091080790E0FC0144
:100D2000EE0FFF1FEE0FFF1FEE0FFF1F8E0F9F1F17
:100D3000FC01EA5CF84F8081882349F38091080721
:100D400090E09C01220F331F220F331F220F331F0D
:100D5000280F391FD901AA5CB84F1196ED91FC916B
:100D600012970280F381E02D1296FC93EE93119777
:100D7000275C384FE217F30729F422813381FD0104
:100D800032832183FC01EE0FFF1FEE0FFF1FEE0FDA
:100D9000FF1F8E0F9F1FFC01EA5CF84F0180F2815C
:100DA000E02D8681978190935B0780935A07089581
:100DB00097FB072E16F4009406D077FD08D014D0C8
:100DC00007FC05D03EF4909581959F4F089570954E
:100DD00061957F4F0895EE0FFF1F0024001C0BBE8E
:100DE0000790F691E02D0994AA1BBB1B51E107C0A7
:100DF000AA1FBB1FA617B70710F0A61BB70B881FAB
:100E0000991F5A95A9F780959095BC01CD01089539
:100E10008F929F92AF92BF92CF92DF92EF92FF920A
:100E2000CF93DF93EC01688179818A819B81611581
:100E300071058105910521F464E279ED8BE597E078
:100E40002DE133EF41E050E04ED049015A019B01C2
:100E5000AC01A7EAB1E463D06B017C01ACEEB4EF66
:100E6000A501940168D0DC01CB018C0D9D1DAE1D48
:100E7000BF1DB7FF03C00197A109B04888839983BC
:100E8000AA83BB839F77DF91CF91FF90EF90DF9094
:100E9000CF90BF90AF909F908F900895B9CF80E092
:100EA00091E0B6CFA0E0B0E0809300019093010103
:100EB000A0930201B09303010895DC0101C06D937A
:100EC00041505040E0F70895FB01DC014150504093
:100ED00048F001900D920020C9F701C01D924150C9
:100EE0005040E0F70895052E97FB16F400940FD0BC
:100EF00057FD05D024D007FC02D046F408C0509519
:100F00004095309521953F4F4F4F5F4F08959095F5
:100F10008095709561957F4F8F4F9F4F089531D089
:100F2000A59F900DB49F900DA49F800D911D11243D
:100F30000895B7FFF4CFF3DF821B930B0895A1E26E
:100F40001A2EAA1BBB1BFD010DC0AA1FBB1FEE1F43
:100F5000FF1FA217B307E407F50720F0A21BB30B8E
:100F6000E40BF50B661F771F881F991F1A9469F70A
:100F700060957095809590959B01AC01BD01CF0166
:100F80000895A29FB001B39FC001A39F700D811D62
:100F90001124911DB29F700D811D1124911D089582
:040FA000F894FFCFF3
:100FA40001000000FFFF4D6F766553656354617364
:100FB4006B00456D69745365635461736B004944F8
:040FC4004C45000098
:00000001FF
